{
  "_format": "hh3-artifact-1",
  "contractName": "HelloWorld",
  "sourceName": "contracts/HelloWorld.sol",
  "abi": [
    {
      "inputs": [
        {
          "internalType": "string",
          "name": "init_message",
          "type": "string"
        }
      ],
      "stateMutability": "nonpayable",
      "type": "constructor"
    },
    {
      "inputs": [],
      "name": "message",
      "outputs": [
        {
          "internalType": "string",
          "name": "",
          "type": "string"
        }
      ],
      "stateMutability": "view",
      "type": "function"
    },
    {
      "inputs": [],
      "name": "sayMessage",
      "outputs": [
        {
          "internalType": "string",
          "name": "",
          "type": "string"
        }
      ],
      "stateMutability": "view",
      "type": "function"
    },
    {
      "inputs": [
        {
          "internalType": "string",
          "name": "new_message",
          "type": "string"
        }
      ],
      "name": "setMessage",
      "outputs": [],
      "stateMutability": "payable",
      "type": "function"
    }
  ],
  "bytecode": "0x608060405234801561001057600080fd5b506040516105f03803806105f083398101604081905261002f916100e2565b8051610042906000906020840190610049565b50506101f5565b828054610055906101a4565b90600052602060002090601f01602090048101928261007757600085556100bd565b82601f1061009057805160ff19168380011785556100bd565b828001600101855582156100bd579182015b828111156100bd5782518255916020019190600101906100a2565b506100c99291506100cd565b5090565b5b808211156100c957600081556001016100ce565b600060208083850312156100f4578182fd5b82516001600160401b038082111561010a578384fd5b818501915085601f83011261011d578384fd5b81518181111561012f5761012f6101df565b604051601f8201601f1916810185018381118282101715610152576101526101df565b6040528181528382018501881015610168578586fd5b8592505b81831015610189578383018501518184018601529184019161016c565b8183111561019957858583830101525b979650505050505050565b6002810460018216806101b857607f821691505b602082108114156101d957634e487b7160e01b600052602260045260246000fd5b50919050565b634e487b7160e01b600052604160045260246000fd5b6103ec806102046000396000f3fe6080604052600436106100345760003560e01c8063368b877214610039578063e21f37ce1461004e578063fc4a028714610079575b600080fd5b61004c610047366004610271565b61008e565b005b34801561005a57600080fd5b506100636100b8565b6040516100709190610312565b60405180910390f35b34801561008557600080fd5b50610063610146565b662386f26fc1000034116100a157600080fd5b80516100b49060009060208401906101d8565b5050565b600080546100c590610365565b80601f01602080910402602001604051908101604052809291908181526020018280546100f190610365565b801561013e5780601f106101135761010080835404028352916020019161013e565b820191906000526020600020905b81548152906001019060200180831161012157829003601f168201915b505050505081565b60606000805461015590610365565b80601f016020809104026020016040519081016040528092919081815260200182805461018190610365565b80156101ce5780601f106101a3576101008083540402835291602001916101ce565b820191906000526020600020905b8154815290600101906020018083116101b157829003601f168201915b5050505050905090565b8280546101e490610365565b90600052602060002090601f016020900481019282610206576000855561024c565b82601f1061021f57805160ff191683800117855561024c565b8280016001018555821561024c579182015b8281111561024c578251825591602001919060010190610231565b5061025892915061025c565b5090565b5b80821115610258576000815560010161025d565b60006020808385031215610283578182fd5b823567ffffffffffffffff8082111561029a578384fd5b818501915085601f8301126102ad578384fd5b8135818111156102bf576102bf6103a0565b604051601f8201601f19168101850183811182821017156102e2576102e26103a0565b60405281815283820185018810156102f8578586fd5b818585018683013790810190930193909352509392505050565b6000602080835283518082850152825b8181101561033e57858101830151858201604001528201610322565b8181111561034f5783604083870101525b50601f01601f1916929092016040019392505050565b60028104600182168061037957607f821691505b6020821081141561039a57634e487b7160e01b600052602260045260246000fd5b50919050565b634e487b7160e01b600052604160045260246000fdfea264697066735822122085249ea5d6d36c6e695f55e4b8c478e7dc8a9dcdd16c0aa7d56e18d1bd27af9164736f6c63430008000033",
  "linkReferences": {},
  "deployedLinkReferences": {},
  "immutableReferences": {},
  "inputSourceName": "project/contracts/HelloWorld.sol",
  "buildInfoId": "solc-0_8_0-eb282e25f67c90eacf672a8b86e773d2dfa0a7f5"
}